{
  "_format": "hh-sol-artifact-1",
  "contractName": "UniversalTokenRouter",
  "sourceName": "contracts/UniversalTokenRouter.sol",
  "abi": [
    {
      "inputs": [
        {
          "components": [
            {
              "internalType": "uint256",
              "name": "output",
              "type": "uint256"
            },
            {
              "internalType": "address",
              "name": "code",
              "type": "address"
            },
            {
              "internalType": "bytes",
              "name": "data",
              "type": "bytes"
            },
            {
              "components": [
                {
                  "internalType": "uint256",
                  "name": "eip",
                  "type": "uint256"
                },
                {
                  "internalType": "address",
                  "name": "adr",
                  "type": "address"
                },
                {
                  "internalType": "uint256",
                  "name": "id",
                  "type": "uint256"
                },
                {
                  "internalType": "uint256",
                  "name": "amount",
                  "type": "uint256"
                },
                {
                  "internalType": "uint256",
                  "name": "offset",
                  "type": "uint256"
                },
                {
                  "internalType": "address",
                  "name": "recipient",
                  "type": "address"
                }
              ],
              "internalType": "struct Token[]",
              "name": "tokens",
              "type": "tuple[]"
            }
          ],
          "internalType": "struct Action[]",
          "name": "actions",
          "type": "tuple[]"
        }
      ],
      "name": "exec",
      "outputs": [],
      "stateMutability": "payable",
      "type": "function"
    }
  ],
  "bytecode": "0x608060405234801561001057600080fd5b50611776806100206000396000f3fe60806040526004361061001e5760003560e01c80632bcfc96114610023575b600080fd5b6100366100313660046114dd565b610038565b005b6000815167ffffffffffffffff81111561005457610054611304565b60405190808252806020026020018201604052801561008757816020015b60608152602001906001900390816100725790505b50905060005b82518110156101b55760008382815181106100aa576100aa611677565b602002602001015190506000816060015190508160000151600014806100cf57508051155b156100db5750506101ad565b6000815167ffffffffffffffff8111156100f7576100f7611304565b604051908082528060200260200182016040528015610120578160200160208202803683370190505b50905060005b815181101561018a57600083828151811061014357610143611677565b6020026020010151905080608001516000036101815761016281610695565b83838151811061017457610174611677565b6020026020010181815250505b50600101610126565b508085858151811061019e5761019e611677565b60200260200101819052505050505b60010161008d565b506000606060005b845181101561067c5760008582815181106101da576101da611677565b6020026020010151905060008160600151905081600001516000036103ca5760408201515115610289576000826020015173ffffffffffffffffffffffffffffffffffffffff16836040015160405161023391906116a6565b6000604051808303816000865af19150503d8060008114610270576040519150601f19603f3d011682016040523d82523d6000602084013e610275565b606091505b50955090508061028757845160208601fd5b505b60005b81518110156103c45760008282815181106102a9576102a9611677565b6020026020010151905060208160800151106103705760006102cf878360800151015190565b9050816060015181111561036a576040517f08c379a000000000000000000000000000000000000000000000000000000000815260206004820152602c60248201527f556e6976657273616c546f6b656e526f757465723a204558434553534956455f60448201527f494e5055545f414d4f554e54000000000000000000000000000000000000000060648201526084015b60405180910390fd5b60608201525b8051158015610397575060a081015173ffffffffffffffffffffffffffffffffffffffff16155b156103a857806060015196506103bb565b6060810151156103bb576103bb816109c5565b5060010161028c565b50610672565b604082015151156105005760408201515160648110801590610412575060408301518101517fc752b293578350488711c09dc69805d9e70939d951cb2b8660ec3e5bde0a20b0145b80156104475750604083015181017fffffffffffffffffffffffffffffffffffffffffffffffffffffffffffffffe001516020145b156104645761045e83604001516020830387610b42565b60408401525b600080846020015173ffffffffffffffffffffffffffffffffffffffff1688866040015160405161049591906116a6565b60006040518083038185875af1925050503d80600081146104d2576040519150601f19603f3d011682016040523d82523d6000602084013e6104d7565b606091505b5091509150811580156104eb575084516002145b156104f857805160208201fd5b600097505050505b60005b815181101561067057600082828151811061052057610520611677565b6020026020010151905060008160800151111561057e5760208160800151106105555760808101518601516060820152610570565b80606001516000036105705761056a81610bc6565b60608201525b61057981610d93565b610667565b600061058982610695565b9050600089878151811061059f5761059f611677565b602002602001015184815181106105b8576105b8611677565b602002602001015182039050826060015181101580156105d85750818111155b610664576040517f08c379a000000000000000000000000000000000000000000000000000000000815260206004820152603060248201527f556e6976657273616c546f6b656e526f757465723a20494e535546464943494560448201527f4e545f4f55545055545f414d4f554e54000000000000000000000000000000006064820152608401610361565b50505b50600101610503565b505b50506001016101bd565b5047801561068e5761068e3382610ec7565b5050505050565b805160009060140361074257602082015160a08301516040517f70a0823100000000000000000000000000000000000000000000000000000000815273ffffffffffffffffffffffffffffffffffffffff91821660048201529116906370a08231906024015b602060405180830381865afa158015610718573d6000803e3d6000fd5b505050506040513d601f19601f8201168201806040525081019061073c91906116e1565b92915050565b8151610483036107b557602082015160a083015160408085015190517efdd58e00000000000000000000000000000000000000000000000000000000815273ffffffffffffffffffffffffffffffffffffffff9283166004820152602481019190915291169062fdd58e906044016106fb565b81516102d1036109155760408201517f3a8612d0e89a6bdc753f6815220b80a99ad812d6d7c319513f8b74f2bf5bf5890161084857602082015160a08301516040517f70a0823100000000000000000000000000000000000000000000000000000000815273ffffffffffffffffffffffffffffffffffffffff91821660048201529116906370a08231906024016106fb565b8160a0015173ffffffffffffffffffffffffffffffffffffffff16826020015173ffffffffffffffffffffffffffffffffffffffff16636352211e84604001516040518263ffffffff1660e01b81526004016108a691815260200190565b602060405180830381865afa1580156108c3573d6000803e3d6000fd5b505050506040513d601f19601f820116820180604052508101906108e791906116fa565b73ffffffffffffffffffffffffffffffffffffffff161461090957600061090c565b60015b60ff1692915050565b815160000361093d575060a0015173ffffffffffffffffffffffffffffffffffffffff163190565b6040517f08c379a000000000000000000000000000000000000000000000000000000000815260206004820152602160248201527f556e6976657273616c546f6b656e526f757465723a20494e56414c49445f454960448201527f50000000000000000000000000000000000000000000000000000000000000006064820152608401610361565b80516014036109e9576109e68160200151338360a001518460600151610fd6565b50565b805161048303610aac57602081015160a080830151604080850151606086015191517ff242432a00000000000000000000000000000000000000000000000000000000815233600482015273ffffffffffffffffffffffffffffffffffffffff9384166024820152604481019190915260648101919091526084810192909252600060a48301529091169063f242432a9060c4015b600060405180830381600087803b158015610a9857600080fd5b505af115801561068e573d6000803e3d6000fd5b80516102d103610b2757602081015160a082015160408084015190517f42842e0e00000000000000000000000000000000000000000000000000000000815233600482015273ffffffffffffffffffffffffffffffffffffffff928316602482015260448101919091529116906342842e0e90606401610a7e565b805160000361093d576109e68160a001518260600151610ec7565b6060604051905082815260208101838101602086015b81831015610b70578051835260209283019201610b58565b50835183518101845294507fffffffffffffffffffffffffffffffffffffffffffffffffffffffffffffffe0810191508401835b81831015610bbc578051835260209283019201610ba4565b5050509392505050565b8051600090601403610c2a5760208201516040517f70a0823100000000000000000000000000000000000000000000000000000000815230600482015273ffffffffffffffffffffffffffffffffffffffff909116906370a08231906024016106fb565b815161048303610c9757602082015160408084015190517efdd58e000000000000000000000000000000000000000000000000000000008152306004820152602481019190915273ffffffffffffffffffffffffffffffffffffffff9091169062fdd58e906044016106fb565b81516102d103610d835760408201517f3a8612d0e89a6bdc753f6815220b80a99ad812d6d7c319513f8b74f2bf5bf58901610d245760208201516040517f70a0823100000000000000000000000000000000000000000000000000000000815230600482015273ffffffffffffffffffffffffffffffffffffffff909116906370a08231906024016106fb565b602082015160408084015190517f6352211e0000000000000000000000000000000000000000000000000000000081526004810191909152309173ffffffffffffffffffffffffffffffffffffffff1690636352211e906024016108a6565b815160000361093d575047919050565b8051601403610db3576109e681602001518260a001518360600151611175565b805161048303610e4c57602081015160a080830151604080850151606086015191517ff242432a00000000000000000000000000000000000000000000000000000000815230600482015273ffffffffffffffffffffffffffffffffffffffff9384166024820152604481019190915260648101919091526084810192909252600060a48301529091169063f242432a9060c401610a7e565b80516102d103610b2757602081015160a082015160408084015190517f42842e0e00000000000000000000000000000000000000000000000000000000815230600482015273ffffffffffffffffffffffffffffffffffffffff928316602482015260448101919091529116906342842e0e90606401610a7e565b6040805160008082526020820190925273ffffffffffffffffffffffffffffffffffffffff8416908390604051610efe91906116a6565b60006040518083038185875af1925050503d8060008114610f3b576040519150601f19603f3d011682016040523d82523d6000602084013e610f40565b606091505b5050905080610fd1576040517f08c379a000000000000000000000000000000000000000000000000000000000815260206004820152603460248201527f5472616e7366657248656c7065723a3a736166655472616e736665724554483a60448201527f20455448207472616e73666572206661696c65640000000000000000000000006064820152608401610361565b505050565b6040805173ffffffffffffffffffffffffffffffffffffffff85811660248301528481166044830152606480830185905283518084039091018152608490920183526020820180517bffffffffffffffffffffffffffffffffffffffffffffffffffffffff167f23b872dd00000000000000000000000000000000000000000000000000000000179052915160009283929088169161107591906116a6565b6000604051808303816000865af19150503d80600081146110b2576040519150601f19603f3d011682016040523d82523d6000602084013e6110b7565b606091505b50915091508180156110e15750805115806110e15750808060200190518101906110e1919061171e565b61116d576040517f08c379a000000000000000000000000000000000000000000000000000000000815260206004820152603160248201527f5472616e7366657248656c7065723a3a7472616e7366657246726f6d3a20747260448201527f616e7366657246726f6d206661696c65640000000000000000000000000000006064820152608401610361565b505050505050565b6040805173ffffffffffffffffffffffffffffffffffffffff8481166024830152604480830185905283518084039091018152606490920183526020820180517bffffffffffffffffffffffffffffffffffffffffffffffffffffffff167fa9059cbb00000000000000000000000000000000000000000000000000000000179052915160009283929087169161120c91906116a6565b6000604051808303816000865af19150503d8060008114611249576040519150601f19603f3d011682016040523d82523d6000602084013e61124e565b606091505b5091509150818015611278575080511580611278575080806020019051810190611278919061171e565b61068e576040517f08c379a000000000000000000000000000000000000000000000000000000000815260206004820152602d60248201527f5472616e7366657248656c7065723a3a736166655472616e736665723a20747260448201527f616e73666572206661696c6564000000000000000000000000000000000000006064820152608401610361565b7f4e487b7100000000000000000000000000000000000000000000000000000000600052604160045260246000fd5b60405160c0810167ffffffffffffffff8111828210171561135657611356611304565b60405290565b6040516080810167ffffffffffffffff8111828210171561135657611356611304565b604051601f82017fffffffffffffffffffffffffffffffffffffffffffffffffffffffffffffffe016810167ffffffffffffffff811182821017156113c6576113c6611304565b604052919050565b600067ffffffffffffffff8211156113e8576113e8611304565b5060051b60200190565b73ffffffffffffffffffffffffffffffffffffffff811681146109e657600080fd5b600082601f83011261142557600080fd5b8135602061143a611435836113ce565b61137f565b82815260c0928302850182019282820191908785111561145957600080fd5b8387015b858110156114d05781818a0312156114755760008081fd5b61147d611333565b813581528582013561148e816113f2565b8187015260408281013590820152606080830135908201526080808301359082015260a0808301356114bf816113f2565b90820152845292840192810161145d565b5090979650505050505050565b600060208083850312156114f057600080fd5b823567ffffffffffffffff8082111561150857600080fd5b818501915085601f83011261151c57600080fd5b813561152a611435826113ce565b81815260059190911b8301840190848101908883111561154957600080fd5b8585015b8381101561166a5780358581111561156457600080fd5b86017fffffffffffffffffffffffffffffffffffffffffffffffffffffffffffffffe06080828d038201121561159957600080fd5b6115a161135c565b8983013581526040808401356115b6816113f2565b828c01526060840135898111156115cd5760008081fd5b8401603f81018f136115df5760008081fd5b8b8101358a8111156115f3576115f3611304565b6116038d86601f8401160161137f565b94508085528f8382840101111561161a5760008081fd5b808383018e87013760009150818d82870101525083828401526080850135935089841115611646578081fd5b50506116568d8b84860101611414565b60608201528552505091860191860161154d565b5098975050505050505050565b7f4e487b7100000000000000000000000000000000000000000000000000000000600052603260045260246000fd5b6000825160005b818110156116c757602081860181015185830152016116ad565b818111156116d6576000828501525b509190910192915050565b6000602082840312156116f357600080fd5b5051919050565b60006020828403121561170c57600080fd5b8151611717816113f2565b9392505050565b60006020828403121561173057600080fd5b8151801515811461171757600080fdfea2646970667358221220b7cd5c7830e5586da61063ed688bdcdf31ba3842e582dac5584e9e77a5adf02764736f6c634300080d0033",
  "linkReferences": {},
  "deployedLinkReferences": {}
}